:020000040000FA
:10000000020249E58D458BFF7E002202032A8F8C78
:0A0010008D8A220200E7E4F50E22BB
:10001B0002001EC0E0C0F0C083C082C0D075D0000B
:10002B00C000C001C002C003C004C005C006C007A9
:10003B007D2B7FFF12000E900057E024FE60030221
:10004B0000CC900052E07022A294B392941204FD63
:10005B009204A204E433FF900053E0FE04F0740812
:10006B002EF582E43400F583EFF0900052E0FF04AC
:10007B00F0EFB40127A294B392941204FD9203A261
:10008B0003E433FF900053E0FE04F074082EF58276
:10009B00E43400F583EFF0900052E4F0900059E067
:1000AB00FF900058E02400F582E43400F583EFF074
:1000BB00900053E0B41F0AE4F01204D7900057E409
:1000CB00F0D007D006D005D004D003D002D001D099
:1000DB0000D0D0D082D083D0F0D0E032C0E0C0F0DE
:1000EB00C083C082C0D075D000C000C001C002C0A8
:1000FB0003C004C005C006C007120503EFD3940369
:10010B0040231204FD401E900056E07018120003AD
:10011B00900050EEF0A3EFF01204BA1204FD92041B
:10012B007F0112049B900056E0FF04F0EFB4011521
:10013B001204FD9203E4FF12049B12000390005083
:10014B00EEF0A3EFF020042A3003271204DB7D2B03
:10015B007FFF12000E9000587407F0A3E4F090009C
:10016B00577402F0900056E4F0C203C2041204D19B
:10017B00800D900056E0B40206E4F0C203C204D036
:10018B0007D006D005D004D003D002D001D000D0C8
:10019B00D0D082D083D0F0D0E0321204E2E509B4A3
:1001AB0007028F08C3E5096480948050030202455F
:1001BB001204E540FB1204E540EAE509B4080050DF
:1001CB00649001D3F82828730201EB0201EF0201BE
:1001DB00F60201FF02020902021102021A020224B4
:1001EB00E508803EAF08EFC3138037AF08EF13135A
:1001FB00543F802EAF08EF131313541F8024AF0806
:10020B00EFC4540F801CAF08EFC41354078013AF17
:10021B0008EFC4131354038009AF08EFC41313136F
:10022B005401139202AF091509C3EF6480948050F7
:10023B00030201AF1204DF0201AF75090722787FB9
:10024B00E4F6D8FD7581200202900203ADE493A37E
:10025B00F8E493A34003F68001F208DFF48029E46D
:10026B0093A3F85407240CC8C333C4540F4420C8B9
:10027B00834004F456800146F6DFE4800B01020450
:10028B000810204080900418E47E019360BCA3FF0B
:10029B00543F30E509541FFEE493A360010ECF5485
:1002AB00C025E060A840B8E493A3FAE493A3F8E474
:1002BB0093A3C8C582C8CAC583CAF0A3C8C582C8E0
:1002CB00CAC583CADFE9DEE780BE1204E5504FAF33
:1002DB000B050BEFB40F03E4F50B1204F44026E50A
:1002EB000A70101204EB40051204F780031204FA93
:1002FB00050A221204EB40051204FA80031204F7DC
:10030B00E4F50A8016AF0A050AEFC3940450030202
:10031B0004F71204F7E4F50A1204F11204E222C006
:10032B00E0C0F0C083C082C0D075D000C000C00157
:10033B00C002C003C004C005C006C0077D2B7FFFF1
:10034B0012000E1202D51203E5D007D006D005D04D
:10035B0004D003D002D001D000D0D0D082D083D033
:10036B00F0D0E0328F128D131204F7E4FFEFC39439
:10037B0004502EEF14601114601714601D240370C9
:10038B00EC1204627F0180E5AF121201A57F02809F
:10039B00DCAF131201A57F0380D31204717F04809D
:1003AB00CC22E4F50F120446C2A3D2AF43F601E40C
:1003BB00FF12049BD2802082FB7DF07FF012036F33
:1003CB00E4F510F511C3E51194FFE510940F50E41B
:1003DB000511E51170EF051080EB1204FD5020059F
:1003EB000DE50DAE0C7002050C1464034E7010F588
:1003FB000CF50D120503EFD394FE500312050012FA
:10040B0004FD4008E4F50CF50D1200162201090756
:10041B00010A00010B00020C0000410057004100D3
:10042B005800410059004100520041005300410067
:10043B00540041005500410056000085A712E4F519
:10044B00A91204C312048E1204CA1204801204A649
:10045B001204B08512A7221204E21204E81204DF80
:10046B001204E540FB221204E21204EE1204DF1226
:10047B0004E540FB22AF88758800758CFF758A2BCD
:10048B008F8822E4F5A775A60875A72075CC0822DE
:10049B00BF010443E4802253E47F22758E027589E9
:1004AB00114388102243F10475E43075A80622E449
:1004BB00F58DF58B438840227597DE7597AD22E459
:1004CB00F5A775E34022E4F58DF58B2243A80422B2
:1004DB0053A8FB22D20122C20122A20122D2022264
:1004EB00A20222D20022C20022A20022D28022C269
:0B04FB008022A28322050E22AF0E22F9
:00000001FF
