:020000040000FA
:10000000020245E58D458BFF7E00220203268F8C80
:0A0010008D8A220200E7E4F50E22BB
:10001B0002001EC0E0C0F0C083C082C0D075D0000B
:10002B00C000C001C002C003C004C005C006C007A9
:10003B007D2B7FFF12000E900057E024FE60030221
:10004B0000CC900052E07022A294B392941204F967
:10005B009204A204E433FF900053E0FE04F0740812
:10006B002EF582E43400F583EFF0900052E0FF04AC
:10007B00F0EFB40127A294B392941204F99203A265
:10008B0003E433FF900053E0FE04F074082EF58276
:10009B00E43400F583EFF0900052E4F0900059E067
:1000AB00FF900058E02400F582E43400F583EFF074
:1000BB00900053E0B41F0AE4F01204D3900057E40D
:1000CB00F0D007D006D005D004D003D002D001D099
:1000DB0000D0D0D082D083D0F0D0E032C0E0C0F0DE
:1000EB00C083C082C0D075D000C000C001C002C0A8
:1000FB0003C004C005C006C0071204FFEFD394036E
:10010B0040231204F9401E900056E07018120003B1
:10011B00900050EEF0A3EFF01204B61204F9920423
:10012B007F01120497900056E0FF04F0EFB4011525
:10013B001204F99203E4FF1204971200039000508B
:10014B00EEF0A3EFF020042A3003271204D77D2B07
:10015B007FFF12000E9000587407F0A3E4F090009C
:10016B00577402F0900056E4F0C203C2041204CD9F
:10017B00800D900056E0B40206E4F0C203C204D036
:10018B0007D006D005D004D003D002D001D000D0C8
:10019B00D0D082D083D0F0D0E0321204DEE509B4A7
:1001AB0008028F08C3E50964809480500302024162
:1001BB001204E140FB1204E140EAAF091509EF1408
:1001CB00B4080050DF9001DE75F003A4C58325F061
:1001DB00C583730201F60201FA02020102020A024E
:1001EB00021402021C02022502022FE508803EAF18
:1001FB0008EFC3138037AF08EF1313543F802EAFB4
:10020B0008EF131313541F8024AF08EFC4540F804F
:10021B001CAF08EFC41354078013AF08EFC41313BC
:10022B0054038009AF08EFC4131313540113920244
:10023B001204DB0201AF75090822787FE4F6D8FDC2
:10024B0075812002028C0203A9E493A3F8E493A323
:10025B004003F68001F208DFF48029E493A3F854FD
:10026B0007240CC8C333C4540F4420C8834004F480
:10027B0056800146F6DFE4800B0102040810204093
:10028B0080900414E47E019360BCA3FF543F30E5DF
:10029B0009541FFEE493A360010ECF54C025E06008
:1002AB00A840B8E493A3FAE493A3F8E493A3C8C5D6
:1002BB0082C8CAC583CAF0A3C8C582C8CAC583CAC7
:1002CB00DFE9DEE780BE1204E1504FAF0B050BEF09
:1002DB00B40F03E4F50B1204F04026E50A7010127C
:1002EB0004E740051204F380031204F6050A2212F8
:1002FB0004E740051204F680031204F3E4F50A80C8
:10030B0016AF0A050AEFC3940450030204F3120458
:10031B00F3E4F50A1204ED1204DE22C0E0C0F0C0D3
:10032B0083C082C0D075D000C000C001C002C00322
:10033B00C004C005C006C0077D2B7FFF12000E1244
:10034B0002D11203E1D007D006D005D004D003D0E0
:10035B0002D001D000D0D0D082D083D0F0D0E03208
:10036B008F128D131204F3E4FFEFC39404502EEF9E
:10037B0014601114601714601D240370EC12045EDA
:10038B007F0180E5AF121201A57F0280DCAF131253
:10039B0001A57F0380D312046D7F0480CC22E4F58A
:1003AB000F120442C2A3D2AF43F601E4FF1204972B
:1003BB00D2802082FBE4FD7FFF12036BE4F510F586
:1003CB0011C3E51194FFE510940F50E40511E511ED
:1003DB0070EF051080EB1204F95020050DE50DAE02
:1003EB000C7002050C1464034E7010F50CF50D1215
:1003FB0004FFEFD394FE50031204FC1204F94008DF
:10040B00E4F50CF50D12001622010908010A000192
:10041B000B00020C00004100570041005800410046
:10042B00590041005200410053004100540041006B
:10043B005500410056000085A712E4F5A91204BF30
:10044B0012048A1204C612047C1204A21204AC8594
:10045B0012A7221204DE1204E41204DB1204E140A0
:10046B00FB221204DE1204EA1204DB1204E140FB4D
:10047B0022AF88758800758CFF758A2B8F8822E4D4
:10048B00F5A775A60875A72075CC0822BF010443F4
:10049B00E4802253E47F22758E0275891143881004
:1004AB002243F10475E43075A80622E4F58DF58B33
:1004BB00438840227597DE7597AD22E4F5A775E367
:1004CB004022E4F58DF58B2243A8042253A8FB228E
:1004DB00D20122C20122A20122D20222A20222D2E4
:1004EB000022C20022A20022D28022C28022A2833A
:0704FB0022050E22AF0E22C4
:00000001FF
