:020000040000FA
:0A00000002015CAF0FEFC3131322DF
:10000B000202BB8F8C8D8A220200C88F8D8D8B22B2
:10001B000201E812045FE509B408028F08C3E50981
:10002B006480948050030200C412046340FB1204EA
:10003B006340EAAF091509EF14B4080050DF9000D4
:10004B005775F003A4C58325F0C5837302006F02B7
:10005B00007702007D02008502008F02009A0200E9
:10006B00A30200ADE508540125E0803FE5085402EA
:10007B008039E5085404C3138031E5085408131381
:10008B00543F8027E5085410131313541F801CE5AD
:10009B00085420C4540F8013E5085440C41354076C
:1000AB008009E5085480C413135403FFE50F54FD76
:1000BB004FF50F12045B02002875090822C0E0C03F
:1000CB00F0C083C082C0D075D000C000C001C00298
:1000DB00C003C004C005C006C007120497EFD39439
:1000EB000140151204914010900052E0700A120466
:1000FB009192017F01120429900052E0FF04F0EF6E
:10010B00640170321204919200E4FF120429200161
:10011B001C3000191204871204557D2B7FFF12002F
:10012B001612047312047B9000567402F090005266
:10013B00E4F0C200C201D007D006D005D004D00332
:10014B00D002D001D000D0D0D082D083D0F0D0E07C
:10015B0032787FE4F6D8FD7581200201A302033EBD
:10016B00E493A3F8E493A34003F68001F208DFF4D1
:10017B008029E493A3F85407240CC8C333C4540F49
:10018B004420C8834004F456800146F6DFE4800B1C
:10019B0001020408102040809003A5E47E019360C7
:1001AB00BCA3FF543F30E509541FFEE493A3600149
:1001BB000ECF54C025E060A840B8E493A3FAE493B3
:1001CB00A3F8E493A3C8C582C8CAC583CAF0A3C861
:1001DB00C582C8CAC583CADFE9DEE780BEC0E0C0FE
:1001EB00F0C083C082C0D075D000C000C001C00277
:1001FB00C003C004C005C006C0077D957FFF120079
:10020B0016900056E024FE7037A294B39294120419
:10021B0091E433FF900055E0FE04F074082EF58254
:10022B00E43400F583EFF0900055E0B44812E4F0AD
:10023B00120477E4FF120429120483900056E4F0B1
:10024B00D007D006D005D004D003D002D001D00007
:10025B00D0D0D082D083D0F0D0E032120463504F94
:10026B00AF0B050BEFB40F03E4F50B12043E402666
:10027B00E50A7010120003400512048B8003120470
:10028B008E050A22120003400512048E800312040D
:10029B008BE4F50A8016AF0A050AEFC394045003EA
:1002AB0002048B12048BE4F50A12046F12045F2212
:1002BB00C0E0C0F0C083C082C0D075D000C000C009
:1002CB0001C002C003C004C005C006C0077D2B7F60
:1002DB00FF12000E120266120372D007D006D00571
:1002EB00D004D003D002D001D000D0D0D082D083A4
:1002FB00D0F0D0E0328F138D1412048BE4FFEFC3D8
:10030B009404502EEF14601114601714601D240315
:10031B0070EC1203E37F0180E5AF1312001E7F0226
:10032B0080DCAF1412001E7F0380D31203F27F0414
:10033B0080CC22E4F5101203C7D2AF43F601E4FFE1
:10034B001204292082FDE4FD7FFF120300E4F51166
:10035B00F512C3E51294FFE511940F50E60512E573
:10036B001270EF051180EB1204915020050DE50D75
:10037B00AE0C7002050C1464024E7010F50CF50DEA
:10038B00120497EFD394FE5003120494120491407D
:10039B0008E4F50CF50D12047F22010908010A008F
:1003AB00010B00020C0000410056004100520041BD
:1003BB0000530041005407410055000085A713E48A
:1003CB00F5A912044712040F12044E120401120471
:1003DB003412041C8513A72212045F120467120443
:1003EB005B12046340FB2212045F12046B12045B6A
:1003FB0012046340FB22AF88758800758CFF758AE9
:10040B002B8F8822E4F5A775A60875A72075CC0855
:10041B002243F18075E47043880475A80622BF015E
:10042B000443E4802253E47F22758E0275891143C5
:10043B00881022AF0FEF1313543F13227597DE75FD
:10044B0097AD22E4F5A775E34022E4F58DF58B22F9
:10045B00430F0122530FFE22E50F1322430F0222FB
:10046B00430F0422530FFB2243A8082253A8F72261
:10047B0043884022E4F50E2243A8042253A8FB2212
:0F048B00D28022C28022A28722050E22AF0E222B
:00000001FF
