:020000040000FA
:10000000020194E58D458BFF7E00220202EB8F8C6E
:100010008D8A2202001E8F8D8D8B22020220C0E06D
:10002000C0F0C083C082C0D075D000C000C001C085
:1000300002C003C004C005C006C007120003900040
:1000400050EEF0A3EFF01204C3EFD394034021125B
:1000500004BD401C900054E0701612048BE4FDFFB8
:1000600012001612048F1204BD92057F011204546F
:10007000900054E0FF04F0EFB4011F900050E0FE48
:10008000A3E0FFD394C8EE9400400FEF94E6EE9403
:100090000050071204BD92048000E4FF12045420B3
:1000A000052A30042712049B1204817D2B7FFF1246
:1000B000001612048F1204879000567407F0A3E410
:1000C000F09000557402F09000548007900054E0C6
:1000D000B40206E4F0C204C205D007D006D005D0B1
:1000E00004D003D002D001D000D0D0D082D083D0B1
:1000F000F0D0E0321204A2E509B408028F08C3E58B
:10010000096480948050030201901204A540FB1200
:1001100004A540EAAF091509EF14B4080050DF90B8
:10012000012D75F003A4C58325F0C5837302014535
:1001300002014902015002015902016302016B02EE
:10014000017402017EE508803EAF08EFC3138037DB
:10015000AF08EF1313543F802EAF08EF131313545F
:100160001F8024AF08EFC4540F801CAF08EFC413E6
:1001700054078013AF08EFC4131354038009AF086A
:10018000EFC4131313540113920312049F0200FED1
:1001900075090822787FE4F6D8FD7581200201DB1D
:1001A00002036EE493A3F8E493A34003F68001F204
:1001B00008DFF48029E493A3F85407240CC8C33360
:1001C000C4540F4420C8834004F456800146F6DF2F
:1001D000E4800B01020408102040809003D9E47EE3
:1001E000019360BCA3FF543F30E509541FFEE49324
:1001F000A360010ECF54C025E060A840B8E493A3EB
:10020000FAE493A3F8E493A3C8C582C8CAC583CA15
:10021000F0A3C8C582C8CAC583CADFE9DEE780BECD
:10022000C0E0C0F0C083C082C0D075D000C000C0A4
:1002300001C002C003C004C005C006C0077D957F91
:10024000FF120016900055E024FE702FA294B39286
:10025000941204BDE433FF900053E0FE04F07408F0
:100260002EF582E43400F583EFF0900053E0B448BB
:100270000AE4F0120497900055E4F0D007D006D0BD
:1002800005D004D003D002D001D000D0D0D082D08D
:1002900083D0F0D0E0321204A5504FAF0B050BEF26
:1002A000B40F03E4F50B1204B44026E50A701012F3
:1002B00004AB40051204B780031204BA050A2212E7
:1002C00004AB40051204BA80031204B7E4F50A80B7
:1002D00016AF0A050AEFC3940450030204B71204D0
:1002E000B7E4F50A1204B11204A222C0E0C0F0C0C3
:1002F00083C082C0D075D000C000C001C002C0035E
:10030000C004C005C006C0077D2B7FFF12000E127F
:1003100002961203A6D007D006D005D004D003D091
:1003200002D001D000D0D0D082D083D0F0D0E03243
:100330008F138D141204B7E4FFEFC39404502EEF13
:1003400014601114601714601D240370EC12041B58
:100350007F0180E5AF131200F47F0280DCAF14123E
:1003600000F47F0380D312042A7F0480CC22E4F5BA
:10037000101203FFC2A3D2AF43F601E4FF120454EC
:10038000D2802082FBE4FD7FFF120330E4F511F5FB
:1003900012C3E51294FFE511940F50E40512E51223
:1003A00070EF051180EB1204BD5020050DE50DAE78
:1003B0000C7002050C1464034E7010F50CF50D1250
:1003C00004C3EFD394FE50031204C01204BD4008CE
:1003D000E4F50CF50D12049322010908010A00014D
:1003E0000B00020C00004100550041005600410086
:1003F0005700410052004100530041005400008565
:10040000A713E4F5A912047312044712047A120424
:100410003912045F1204698513A7221204A2120480
:10042000A812049F1204A540FB221204A21204AEDB
:1004300012049F1204A540FB22AF88758800758CBA
:10044000FF758A2B8F8822E4F5A775A60875A7206B
:1004500075CC0822BF010443E4802253E47F227557
:100460008E027589114388102243F18075E47075FE
:10047000A806227597DE7597AD22E4F5A775E340CF
:1004800022E4F58DF58B2243A8082253A8F72243D6
:10049000884022E4F50E2243A8042253A8FB22D26E
:1004A0000222C20222A20222D20322A20322D201EB
:1004B00022C20122A20122D28022C28022A287224D
:0604C000050E22AF0E2222
:00000001FF
